{
  "contractName": "Verifier",
  "abi": [
    {
      "anonymous": false,
      "inputs": [
        {
          "indexed": true,
          "internalType": "bytes32",
          "name": "commitmentId",
          "type": "bytes32"
        },
        {
          "indexed": true,
          "internalType": "address",
          "name": "uploader",
          "type": "address"
        }
      ],
      "name": "AadhaarCommitted",
      "type": "event"
    },
    {
      "inputs": [
        {
          "internalType": "bytes32",
          "name": "commitmentId",
          "type": "bytes32"
        },
        {
          "internalType": "bytes32",
          "name": "above18",
          "type": "bytes32"
        },
        {
          "internalType": "bytes32",
          "name": "indian",
          "type": "bytes32"
        },
        {
          "internalType": "bytes32",
          "name": "gender",
          "type": "bytes32"
        },
        {
          "internalType": "bytes32",
          "name": "nameHash",
          "type": "bytes32"
        },
        {
          "internalType": "bytes32",
          "name": "validity",
          "type": "bytes32"
        }
      ],
      "name": "setAadhaarCommitments",
      "outputs": [],
      "stateMutability": "nonpayable",
      "type": "function"
    },
    {
      "inputs": [
        {
          "internalType": "bytes32",
          "name": "commitmentId",
          "type": "bytes32"
        }
      ],
      "name": "isSet",
      "outputs": [
        {
          "internalType": "bool",
          "name": "",
          "type": "bool"
        }
      ],
      "stateMutability": "view",
      "type": "function",
      "constant": true
    },
    {
      "inputs": [
        {
          "internalType": "bytes32",
          "name": "commitmentId",
          "type": "bytes32"
        },
        {
          "internalType": "bytes32",
          "name": "provided",
          "type": "bytes32"
        }
      ],
      "name": "verifyAbove18",
      "outputs": [
        {
          "internalType": "bool",
          "name": "",
          "type": "bool"
        }
      ],
      "stateMutability": "view",
      "type": "function",
      "constant": true
    },
    {
      "inputs": [
        {
          "internalType": "bytes32",
          "name": "commitmentId",
          "type": "bytes32"
        },
        {
          "internalType": "bytes32",
          "name": "provided",
          "type": "bytes32"
        }
      ],
      "name": "verifyIndian",
      "outputs": [
        {
          "internalType": "bool",
          "name": "",
          "type": "bool"
        }
      ],
      "stateMutability": "view",
      "type": "function",
      "constant": true
    },
    {
      "inputs": [
        {
          "internalType": "bytes32",
          "name": "commitmentId",
          "type": "bytes32"
        },
        {
          "internalType": "bytes32",
          "name": "provided",
          "type": "bytes32"
        }
      ],
      "name": "verifyGender",
      "outputs": [
        {
          "internalType": "bool",
          "name": "",
          "type": "bool"
        }
      ],
      "stateMutability": "view",
      "type": "function",
      "constant": true
    },
    {
      "inputs": [
        {
          "internalType": "bytes32",
          "name": "commitmentId",
          "type": "bytes32"
        },
        {
          "internalType": "bytes32",
          "name": "provided",
          "type": "bytes32"
        }
      ],
      "name": "verifyName",
      "outputs": [
        {
          "internalType": "bool",
          "name": "",
          "type": "bool"
        }
      ],
      "stateMutability": "view",
      "type": "function",
      "constant": true
    },
    {
      "inputs": [
        {
          "internalType": "bytes32",
          "name": "commitmentId",
          "type": "bytes32"
        },
        {
          "internalType": "bytes32",
          "name": "provided",
          "type": "bytes32"
        }
      ],
      "name": "verifyValidity",
      "outputs": [
        {
          "internalType": "bool",
          "name": "",
          "type": "bool"
        }
      ],
      "stateMutability": "view",
      "type": "function",
      "constant": true
    }
  ],
  "bytecode": "0x608060405234801561001057600080fd5b50610693806100206000396000f3fe608060405234801561001057600080fd5b506004361061007d5760003560e01c8063b3dceda11161005b578063b3dceda114610112578063be65fbf014610142578063cc69eff414610172578063e43fa9321461018e5761007d565b8063208069371461008257806339f051b4146100b25780638d1e46a4146100e2575b600080fd5b61009c600480360381019061009791906104b0565b6101be565b6040516100a9919061050b565b60405180910390f35b6100cc60048036038101906100c791906104b0565b6101ff565b6040516100d9919061050b565b60405180910390f35b6100fc60048036038101906100f79190610526565b610240565b604051610109919061050b565b60405180910390f35b61012c600480360381019061012791906104b0565b61026c565b604051610139919061050b565b60405180910390f35b61015c600480360381019061015791906104b0565b6102ad565b604051610169919061050b565b60405180910390f35b61018c60048036038101906101879190610553565b6102ee565b005b6101a860048036038101906101a391906104b0565b610434565b6040516101b5919061050b565b60405180910390f35b60008060008085815260200190815260200160002090508060050160009054906101000a900460ff1680156101f65750828160040154145b91505092915050565b60008060008085815260200190815260200160002090508060050160009054906101000a900460ff1680156102375750828160030154145b91505092915050565b600080600083815260200190815260200160002060050160009054906101000a900460ff169050919050565b60008060008085815260200190815260200160002090508060050160009054906101000a900460ff1680156102a45750828160020154145b91505092915050565b60008060008085815260200190815260200160002090508060050160009054906101000a900460ff1680156102e55750828160000154145b91505092915050565b60008087815260200190815260200160002060050160009054906101000a900460ff1615610351576040517f08c379a00000000000000000000000000000000000000000000000000000000081526004016103489061063d565b60405180910390fd5b6040518060c0016040528086815260200185815260200184815260200183815260200182815260200160011515815250600080888152602001908152602001600020600082015181600001556020820151816001015560408201518160020155606082015181600301556080820151816004015560a08201518160050160006101000a81548160ff0219169083151502179055509050503373ffffffffffffffffffffffffffffffffffffffff16867f6e0ae0f1503382dd8d17c1a6d792a1b76504ac651e645800593434677722e43560405160405180910390a3505050505050565b60008060008085815260200190815260200160002090508060050160009054906101000a900460ff16801561046c5750828160010154145b91505092915050565b600080fd5b6000819050919050565b61048d8161047a565b811461049857600080fd5b50565b6000813590506104aa81610484565b92915050565b600080604083850312156104c7576104c6610475565b5b60006104d58582860161049b565b92505060206104e68582860161049b565b9150509250929050565b60008115159050919050565b610505816104f0565b82525050565b600060208201905061052060008301846104fc565b92915050565b60006020828403121561053c5761053b610475565b5b600061054a8482850161049b565b91505092915050565b60008060008060008060c087890312156105705761056f610475565b5b600061057e89828a0161049b565b965050602061058f89828a0161049b565b95505060406105a089828a0161049b565b94505060606105b189828a0161049b565b93505060806105c289828a0161049b565b92505060a06105d389828a0161049b565b9150509295509295509295565b600082825260208201905092915050565b7f416c726561647920736574000000000000000000000000000000000000000000600082015250565b6000610627600b836105e0565b9150610632826105f1565b602082019050919050565b600060208201905081810360008301526106568161061a565b905091905056fea264697066735822122001ab2512c9e4feed61cdd10881fc9ff2494419a15f2242679d52d27dc904407964736f6c63430008130033",
  "immutableReferences": {},
  "source": "// SPDX-License-Identifier: MIT\r\npragma solidity ^0.8.19;\r\n\r\ncontract Verifier {\r\n    struct AadhaarSet {\r\n        // Commitments are stored as bytes32 (keccak256 hashes)\r\n        bytes32 above18;           // hash(userId || \"Above18\")\r\n        bytes32 indian;            // hash(userId || \"Indian\")\r\n        bytes32 gender;            // hash(userId || \"Gender:\" || M/F)\r\n        bytes32 nameHash;          // hash(userId || \"Name:\" || nameLowercase)\r\n        bytes32 validity;          // hash(userId || \"Valid\") == committed if document not tampered\r\n        bool set;\r\n    }\r\n\r\n    // commitmentId => AadhaarSet\r\n    mapping(bytes32 => AadhaarSet) private records;\r\n\r\n    event AadhaarCommitted(bytes32 indexed commitmentId, address indexed uploader);\r\n\r\n    function setAadhaarCommitments(\r\n        bytes32 commitmentId,\r\n        bytes32 above18,\r\n        bytes32 indian,\r\n        bytes32 gender,\r\n        bytes32 nameHash,\r\n        bytes32 validity\r\n    ) external {\r\n        require(!records[commitmentId].set, \"Already set\");\r\n        records[commitmentId] = AadhaarSet({\r\n            above18: above18,\r\n            indian: indian,\r\n            gender: gender,\r\n            nameHash: nameHash,\r\n            validity: validity,\r\n            set: true\r\n        });\r\n        emit AadhaarCommitted(commitmentId, msg.sender);\r\n    }\r\n\r\n    function isSet(bytes32 commitmentId) external view returns (bool) {\r\n        return records[commitmentId].set;\r\n    }\r\n\r\n    function verifyAbove18(bytes32 commitmentId, bytes32 provided) external view returns (bool) {\r\n        AadhaarSet storage s = records[commitmentId];\r\n        return s.set && s.above18 == provided;\r\n    }\r\n\r\n    function verifyIndian(bytes32 commitmentId, bytes32 provided) external view returns (bool) {\r\n        AadhaarSet storage s = records[commitmentId];\r\n        return s.set && s.indian == provided;\r\n    }\r\n\r\n    function verifyGender(bytes32 commitmentId, bytes32 provided) external view returns (bool) {\r\n        AadhaarSet storage s = records[commitmentId];\r\n        return s.set && s.gender == provided;\r\n    }\r\n\r\n    function verifyName(bytes32 commitmentId, bytes32 provided) external view returns (bool) {\r\n        AadhaarSet storage s = records[commitmentId];\r\n        return s.set && s.nameHash == provided;\r\n    }\r\n\r\n    function verifyValidity(bytes32 commitmentId, bytes32 provided) external view returns (bool) {\r\n        AadhaarSet storage s = records[commitmentId];\r\n        return s.set && s.validity == provided;\r\n    }\r\n}\r\n\r\n\r\n",
  "sourcePath": "D:\\Projects\\Major Project\\DocAudits\\contracts\\Verifier.sol",
  "compiler": {
    "name": "solc",
    "version": "0.8.19+commit.7dd6d404.Emscripten.clang"
  },
  "schemaVersion": "3.4.16",
  "updatedAt": "2025-09-07T10:42:57.539Z",
  "networkType": "ethereum",
  "devdoc": {
    "kind": "dev",
    "methods": {},
    "version": 1
  },
  "userdoc": {
    "kind": "user",
    "methods": {},
    "version": 1
  }
}